{
  "contractName": "PaymentChannel",
  "abi": [
    {
      "inputs": [
        {
          "internalType": "address payable",
          "name": "_recipient",
          "type": "address"
        },
        {
          "internalType": "uint256",
          "name": "duration",
          "type": "uint256"
        }
      ],
      "stateMutability": "payable",
      "type": "constructor"
    },
    {
      "inputs": [],
      "name": "expiration",
      "outputs": [
        {
          "internalType": "uint256",
          "name": "",
          "type": "uint256"
        }
      ],
      "stateMutability": "view",
      "type": "function"
    },
    {
      "inputs": [],
      "name": "recipient",
      "outputs": [
        {
          "internalType": "address payable",
          "name": "",
          "type": "address"
        }
      ],
      "stateMutability": "view",
      "type": "function"
    },
    {
      "inputs": [],
      "name": "sender",
      "outputs": [
        {
          "internalType": "address payable",
          "name": "",
          "type": "address"
        }
      ],
      "stateMutability": "view",
      "type": "function"
    },
    {
      "inputs": [
        {
          "internalType": "uint256",
          "name": "amount",
          "type": "uint256"
        },
        {
          "internalType": "bytes",
          "name": "signature",
          "type": "bytes"
        }
      ],
      "name": "close",
      "outputs": [],
      "stateMutability": "nonpayable",
      "type": "function"
    },
    {
      "inputs": [
        {
          "internalType": "uint256",
          "name": "newExpiration",
          "type": "uint256"
        }
      ],
      "name": "extend",
      "outputs": [],
      "stateMutability": "view",
      "type": "function"
    },
    {
      "inputs": [],
      "name": "claimTimeout",
      "outputs": [],
      "stateMutability": "nonpayable",
      "type": "function"
    }
  ],
  "bytecode": "0x608060405260405162000b3b38038062000b3b8339818101604052810190620000299190620000f4565b336000806101000a81548173ffffffffffffffffffffffffffffffffffffffff021916908373ffffffffffffffffffffffffffffffffffffffff16021790555081600160006101000a81548173ffffffffffffffffffffffffffffffffffffffff021916908373ffffffffffffffffffffffffffffffffffffffff1602179055508042620000b8919062000135565b600281905550505062000233565b600081519050620000d781620001ff565b92915050565b600081519050620000ee8162000219565b92915050565b600080604083850312156200010857600080fd5b60006200011885828601620000c6565b92505060206200012b85828601620000dd565b9150509250929050565b60006200014282620001c6565b91506200014f83620001c6565b9250827fffffffffffffffffffffffffffffffffffffffffffffffffffffffffffffffff03821115620001875762000186620001d0565b5b828201905092915050565b60006200019f82620001a6565b9050919050565b600073ffffffffffffffffffffffffffffffffffffffff82169050919050565b6000819050919050565b7f4e487b7100000000000000000000000000000000000000000000000000000000600052601160045260246000fd5b6200020a8162000192565b81146200021657600080fd5b50565b6200022481620001c6565b81146200023057600080fd5b50565b6108f880620002436000396000f3fe608060405234801561001057600080fd5b50600436106100625760003560e01c80630e1da6c314610067578063415ffba7146100715780634665096d1461008d57806366d003ac146100ab57806367e404ce146100c95780639714378c146100e7575b600080fd5b61006f610103565b005b61008b60048036038101906100869190610520565b61014b565b005b61009561025a565b6040516100a291906106ca565b60405180910390f35b6100b3610260565b6040516100c0919061066a565b60405180910390f35b6100d1610286565b6040516100de919061066a565b60405180910390f35b61010160048036038101906100fc91906104f7565b6102aa565b005b60025442101561011257600080fd5b60008054906101000a900473ffffffffffffffffffffffffffffffffffffffff1673ffffffffffffffffffffffffffffffffffffffff16ff5b600160009054906101000a900473ffffffffffffffffffffffffffffffffffffffff1673ffffffffffffffffffffffffffffffffffffffff163373ffffffffffffffffffffffffffffffffffffffff16146101a557600080fd5b6101af8282610315565b6101b857600080fd5b600160009054906101000a900473ffffffffffffffffffffffffffffffffffffffff1673ffffffffffffffffffffffffffffffffffffffff166108fc839081150290604051600060405180830381858888f19350505050158015610220573d6000803e3d6000fd5b5060008054906101000a900473ffffffffffffffffffffffffffffffffffffffff1673ffffffffffffffffffffffffffffffffffffffff16ff5b60025481565b600160009054906101000a900473ffffffffffffffffffffffffffffffffffffffff1681565b60008054906101000a900473ffffffffffffffffffffffffffffffffffffffff1681565b600160009054906101000a900473ffffffffffffffffffffffffffffffffffffffff1673ffffffffffffffffffffffffffffffffffffffff163373ffffffffffffffffffffffffffffffffffffffff161461030457600080fd5b600254811161031257600080fd5b50565b600080610349308560405160200161032e929190610618565b604051602081830303815290604052805190602001206103ac565b905060008054906101000a900473ffffffffffffffffffffffffffffffffffffffff1673ffffffffffffffffffffffffffffffffffffffff1661038c82856103dc565b73ffffffffffffffffffffffffffffffffffffffff161491505092915050565b6000816040516020016103bf9190610644565b604051602081830303815290604052805190602001209050919050565b6000806000806103eb8561044b565b925092509250600186848484604051600081526020016040526040516104149493929190610685565b6020604051602081039080840390855afa158015610436573d6000803e3d6000fd5b50505060206040510351935050505092915050565b6000806000604184511461045e57600080fd5b6020840151915060408401519050606084015192509193909250565b600061048d6104888461070a565b6106e5565b9050828152602081018484840111156104a557600080fd5b6104b08482856107bd565b509392505050565b600082601f8301126104c957600080fd5b81356104d984826020860161047a565b91505092915050565b6000813590506104f1816108ab565b92915050565b60006020828403121561050957600080fd5b6000610517848285016104e2565b91505092915050565b6000806040838503121561053357600080fd5b6000610541858286016104e2565b925050602083013567ffffffffffffffff81111561055e57600080fd5b61056a858286016104b8565b9150509250929050565b61057d81610746565b82525050565b61058c81610758565b82525050565b6105a361059e82610758565b61080f565b82525050565b6105ba6105b582610799565b6107fd565b82525050565b60006105cd601c8361073b565b91506105d882610882565b601c82019050919050565b6105ec81610782565b82525050565b6106036105fe82610782565b61082b565b82525050565b6106128161078c565b82525050565b600061062482856105a9565b60148201915061063482846105f2565b6020820191508190509392505050565b600061064f826105c0565b915061065b8284610592565b60208201915081905092915050565b600060208201905061067f6000830184610574565b92915050565b600060808201905061069a6000830187610583565b6106a76020830186610609565b6106b46040830185610583565b6106c16060830184610583565b95945050505050565b60006020820190506106df60008301846105e3565b92915050565b60006106ef610700565b90506106fb82826107cc565b919050565b6000604051905090565b600067ffffffffffffffff82111561072557610724610835565b5b61072e82610864565b9050602081019050919050565b600081905092915050565b600061075182610762565b9050919050565b6000819050919050565b600073ffffffffffffffffffffffffffffffffffffffff82169050919050565b6000819050919050565b600060ff82169050919050565b60006107a4826107ab565b9050919050565b60006107b682610762565b9050919050565b82818337600083830152505050565b6107d582610864565b810181811067ffffffffffffffff821117156107f4576107f3610835565b5b80604052505050565b600061080882610819565b9050919050565b6000819050919050565b600061082482610875565b9050919050565b6000819050919050565b7f4e487b7100000000000000000000000000000000000000000000000000000000600052604160045260246000fd5b6000601f19601f8301169050919050565b60008160601b9050919050565b7f19457468657265756d207369676e6564204d6573736167653a0a333200000000600082015250565b6108b481610782565b81146108bf57600080fd5b5056fea264697066735822122056b77fc102128bce7fa7704655388a8694b43c1686c9c540151baa41e06d8d3764736f6c63430008040033",
  "immutableReferences": {},
  "source": "//SPDX-License-Identifier: GPL-3.0\r\npragma solidity ^0.8.4;\r\n\r\ncontract PaymentChannel{\r\n    address payable public sender;\r\n    address payable public recipient;\r\n    uint256 public expiration;\r\n\r\n    constructor (address payable _recipient, uint256 duration) payable{\r\n        sender = payable(msg.sender);\r\n        recipient = _recipient;\r\n        expiration = block.timestamp + duration;\r\n    }\r\n\r\n    function close(uint256 amount, bytes memory signature) public{\r\n        require(msg.sender == recipient);\r\n        require(isValidSignature(amount, signature));\r\n        \r\n        recipient.transfer(amount);\r\n        selfdestruct(sender);\r\n    }\r\n\r\n   function extend(uint256 newExpiration) public view{\r\n       require(msg.sender == recipient);\r\n       require(newExpiration > expiration);\r\n   }\r\n    function claimTimeout() public {\r\n        require(block.timestamp >= expiration);\r\n        selfdestruct(sender);\r\n    }\r\n\r\n    function isValidSignature(uint256 amount, bytes memory signature)\r\n    internal \r\n    view\r\n    returns(bool) {\r\n        bytes32 message = prefixed(keccak256(abi.encodePacked(this, amount)));\r\n\r\n        return recoverSigner(message, signature) == sender;\r\n    }\r\n\r\n    function splitSignature(bytes memory sig)\r\n    internal \r\n    pure\r\n    returns(uint8 v, bytes32 r, bytes32 s){\r\n        require(sig.length == 65);\r\n        \r\n        assembly{\r\n            r := mload(add(sig, 32))\r\n            s := mload(add(sig, 64))\r\n            v := mload(add(sig, 96))\r\n        }\r\n        return(v, r, s);\r\n    }\r\n    function recoverSigner(bytes32 message, bytes memory sig)\r\n    internal \r\n    pure \r\n    returns(address){\r\n        (uint8 v, bytes32 r, bytes32 s) = splitSignature(sig);\r\n        return ecrecover(message, v, r, s);\r\n    } \r\n\r\n    function prefixed(bytes32 hash) internal pure returns(bytes32){\r\n        return keccak256(abi.encodePacked(\"\\x19Ethereum signed Message:\\n32\", hash));\r\n    }\r\n}",
  "sourcePath": "C:/Users/kelche codes/Paymentchannel/contracts/Payments.sol",
  "compiler": {
    "name": "solc",
    "version": "0.8.4+commit.c7e474f2.Emscripten.clang"
  },
  "schemaVersion": "3.3.4",
  "updatedAt": "2021-04-26T04:13:54.998Z",
  "devdoc": {
    "kind": "dev",
    "methods": {},
    "version": 1
  },
  "userdoc": {
    "kind": "user",
    "methods": {},
    "version": 1
  }
}