{
  "contractName": "ReceiverPays",
  "abi": [
    {
      "inputs": [],
      "stateMutability": "payable",
      "type": "constructor",
      "payable": true
    },
    {
      "inputs": [
        {
          "internalType": "uint256",
          "name": "amount",
          "type": "uint256"
        },
        {
          "internalType": "uint256",
          "name": "nonce",
          "type": "uint256"
        },
        {
          "internalType": "bytes",
          "name": "signature",
          "type": "bytes"
        }
      ],
      "name": "claimPayment",
      "outputs": [],
      "stateMutability": "nonpayable",
      "type": "function"
    },
    {
      "inputs": [],
      "name": "shutdown",
      "outputs": [],
      "stateMutability": "nonpayable",
      "type": "function"
    }
  ],
  "bytecode": "0x6080604052336000806101000a81548173ffffffffffffffffffffffffffffffffffffffff021916908373ffffffffffffffffffffffffffffffffffffffff16021790555061072a806100536000396000f3fe608060405234801561001057600080fd5b50600436106100365760003560e01c8063a90ae8871461003b578063fc0e74d114610057575b600080fd5b6100556004803603810190610050919061035a565b610061565b005b61005f61019e565b005b6001600083815260200190815260200160002060009054906101000a900460ff161561008c57600080fd5b600180600084815260200190815260200160002060006101000a81548160ff02191690831515021790555060006100ee338585306040516020016100d3949392919061045e565b6040516020818303038152906040528051906020012061020f565b905060008054906101000a900473ffffffffffffffffffffffffffffffffffffffff1673ffffffffffffffffffffffffffffffffffffffff16610131828461023f565b73ffffffffffffffffffffffffffffffffffffffff161461015157600080fd5b3373ffffffffffffffffffffffffffffffffffffffff166108fc859081150290604051600060405180830381858888f19350505050158015610197573d6000803e3d6000fd5b5050505050565b60008054906101000a900473ffffffffffffffffffffffffffffffffffffffff1673ffffffffffffffffffffffffffffffffffffffff163373ffffffffffffffffffffffffffffffffffffffff16146101f657600080fd5b3373ffffffffffffffffffffffffffffffffffffffff16ff5b60008160405160200161022291906104ac565b604051602081830303815290604052805190602001209050919050565b60008060008061024e856102ae565b9250925092506001868484846040516000815260200160405260405161027794939291906104d2565b6020604051602081039080840390855afa158015610299573d6000803e3d6000fd5b50505060206040510351935050505092915050565b600080600060418451146102c157600080fd5b6020840151915060408401519050606084015192509193909250565b60006102f06102eb8461053c565b610517565b90508281526020810184848401111561030857600080fd5b6103138482856105ef565b509392505050565b600082601f83011261032c57600080fd5b813561033c8482602086016102dd565b91505092915050565b600081359050610354816106dd565b92915050565b60008060006060848603121561036f57600080fd5b600061037d86828701610345565b935050602061038e86828701610345565b925050604084013567ffffffffffffffff8111156103ab57600080fd5b6103b78682870161031b565b9150509250925092565b6103d26103cd82610578565b61062f565b82525050565b6103e18161058a565b82525050565b6103f86103f38261058a565b610641565b82525050565b61040f61040a826105cb565b61062f565b82525050565b6000610422601e8361056d565b915061042d826106b4565b601e82019050919050565b610449610444826105b4565b61065d565b82525050565b610458816105be565b82525050565b600061046a82876103c1565b60148201915061047a8286610438565b60208201915061048a8285610438565b60208201915061049a82846103fe565b60148201915081905095945050505050565b60006104b782610415565b91506104c382846103e7565b60208201915081905092915050565b60006080820190506104e760008301876103d8565b6104f4602083018661044f565b61050160408301856103d8565b61050e60608301846103d8565b95945050505050565b6000610521610532565b905061052d82826105fe565b919050565b6000604051905090565b600067ffffffffffffffff82111561055757610556610667565b5b61056082610696565b9050602081019050919050565b600081905092915050565b600061058382610594565b9050919050565b6000819050919050565b600073ffffffffffffffffffffffffffffffffffffffff82169050919050565b6000819050919050565b600060ff82169050919050565b60006105d6826105dd565b9050919050565b60006105e882610594565b9050919050565b82818337600083830152505050565b61060782610696565b810181811067ffffffffffffffff8211171561062657610625610667565b5b80604052505050565b600061063a8261064b565b9050919050565b6000819050919050565b6000610656826106a7565b9050919050565b6000819050919050565b7f4e487b7100000000000000000000000000000000000000000000000000000000600052604160045260246000fd5b6000601f19601f8301169050919050565b60008160601b9050919050565b7f783139457468657265756d205369676e6564204d6573736167653a0a33320000600082015250565b6106e6816105b4565b81146106f157600080fd5b5056fea2646970667358221220d9d3da535592260cdfd8a078ccbddd1130157a62a93c87fc599bcc257dc1342a64736f6c63430008040033",
  "immutableReferences": {},
  "source": "//SPDX-License-Identifier: GPL-3.0\r\npragma solidity ^0.8.4;\r\n\r\ncontract ReceiverPays {\r\n    address owner = msg.sender;\r\n\r\n    mapping(uint256 => bool) usedNonces;\r\n    constructor() payable{}\r\n\r\n    function claimPayment(uint256 amount, uint256 nonce, bytes memory signature) \r\n    public{\r\n        require(!usedNonces[nonce]);\r\n        usedNonces[nonce] = true;\r\n        bytes32 message = prefixed(keccak256(abi.encodePacked(msg.sender, amount, nonce, this)));\r\n        require(recoverSigner(message, signature) == owner);\r\n        payable( msg.sender).transfer(amount);    \r\n    }\r\n\r\n    function shutdown () public{\r\n        require(msg.sender == owner);\r\n        selfdestruct(payable(msg.sender));\r\n    }\r\n\r\n    function splitSignature(bytes memory sig) internal pure returns(uint8 v, bytes32 r, bytes32 s ){\r\n        require(sig.length == 65);\r\n        assembly {\r\n            r := mload(add(sig, 32))\r\n            s := mload(add(sig, 64))\r\n            v := mload(add(sig, 96))\r\n        }\r\n        return (v,r,s);\r\n    }\r\n    function recoverSigner(bytes32 message, bytes memory sig)\r\n    internal\r\n    pure\r\n    returns(address){\r\n        (uint8 v, bytes32 r, bytes32 s) = splitSignature(sig);\r\n        return ecrecover(message, v, r, s);\r\n    }\r\n    function prefixed(bytes32 hash) internal pure returns (bytes32){\r\n        return keccak256(abi.encodePacked(\"x19Ethereum Signed Message:\\n32\", hash));\r\n    }\r\n    \r\n}",
  "sourcePath": "C:/Users/kelche codes/Paymentchannel/contracts/ReceiverPays.sol",
  "compiler": {
    "name": "solc",
    "version": "0.8.4+commit.c7e474f2.Emscripten.clang"
  },
  "schemaVersion": "3.3.4",
  "updatedAt": "2021-04-26T02:42:27.783Z",
  "networkType": "ethereum",
  "devdoc": {
    "kind": "dev",
    "methods": {},
    "version": 1
  },
  "userdoc": {
    "kind": "user",
    "methods": {},
    "version": 1
  }
}