{
  "contractName": "Token",
  "abi": [
    {
      "anonymous": false,
      "inputs": [
        {
          "indexed": false,
          "internalType": "address",
          "name": "owner",
          "type": "address"
        },
        {
          "indexed": false,
          "internalType": "address",
          "name": "spender",
          "type": "address"
        },
        {
          "indexed": false,
          "internalType": "uint256",
          "name": "amount",
          "type": "uint256"
        }
      ],
      "name": "Aproval",
      "type": "event"
    },
    {
      "anonymous": false,
      "inputs": [
        {
          "indexed": false,
          "internalType": "address",
          "name": "from",
          "type": "address"
        },
        {
          "indexed": false,
          "internalType": "address",
          "name": "to",
          "type": "address"
        },
        {
          "indexed": false,
          "internalType": "uint256",
          "name": "amount",
          "type": "uint256"
        }
      ],
      "name": "Transfer",
      "type": "event"
    },
    {
      "inputs": [
        {
          "internalType": "address",
          "name": "to",
          "type": "address"
        },
        {
          "internalType": "uint256",
          "name": "amount",
          "type": "uint256"
        }
      ],
      "name": "transfer",
      "outputs": [
        {
          "internalType": "bool",
          "name": "success",
          "type": "bool"
        }
      ],
      "stateMutability": "nonpayable",
      "type": "function"
    },
    {
      "inputs": [
        {
          "internalType": "address",
          "name": "from",
          "type": "address"
        },
        {
          "internalType": "address",
          "name": "to",
          "type": "address"
        },
        {
          "internalType": "uint256",
          "name": "amount",
          "type": "uint256"
        }
      ],
      "name": "transferFrom",
      "outputs": [
        {
          "internalType": "bool",
          "name": "success",
          "type": "bool"
        }
      ],
      "stateMutability": "nonpayable",
      "type": "function"
    },
    {
      "inputs": [
        {
          "internalType": "address",
          "name": "spender",
          "type": "address"
        },
        {
          "internalType": "uint256",
          "name": "tokens",
          "type": "uint256"
        }
      ],
      "name": "approve",
      "outputs": [
        {
          "internalType": "bool",
          "name": "success",
          "type": "bool"
        }
      ],
      "stateMutability": "nonpayable",
      "type": "function"
    },
    {
      "inputs": [
        {
          "internalType": "address",
          "name": "tokenOwner",
          "type": "address"
        }
      ],
      "name": "balanceOf",
      "outputs": [
        {
          "internalType": "uint256",
          "name": "balance",
          "type": "uint256"
        }
      ],
      "stateMutability": "view",
      "type": "function",
      "constant": true
    }
  ],
  "bytecode": "0x608060405234801561001057600080fd5b50610921806100206000396000f3fe608060405234801561001057600080fd5b506004361061004c5760003560e01c8063095ea7b31461005157806323b872dd1461008157806370a08231146100b1578063a9059cbb146100e1575b600080fd5b61006b600480360381019061006691906106c3565b610111565b6040516100789190610786565b60405180910390f35b61009b60048036038101906100969190610674565b610297565b6040516100a89190610786565b60405180910390f35b6100cb60048036038101906100c6919061064b565b6103ff565b6040516100d891906107c1565b60405180910390f35b6100fb60048036038101906100f691906106c3565b610447565b6040516101089190610786565b60405180910390f35b600080600160003373ffffffffffffffffffffffffffffffffffffffff1673ffffffffffffffffffffffffffffffffffffffff16815260200190815260200160002060008573ffffffffffffffffffffffffffffffffffffffff1673ffffffffffffffffffffffffffffffffffffffff16815260200190815260200160002054146101d1576040517f08c379a00000000000000000000000000000000000000000000000000000000081526004016101c8906107a1565b60405180910390fd5b81600160003373ffffffffffffffffffffffffffffffffffffffff1673ffffffffffffffffffffffffffffffffffffffff16815260200190815260200160002060008573ffffffffffffffffffffffffffffffffffffffff1673ffffffffffffffffffffffffffffffffffffffff168152602001908152602001600020819055507f60f39b1269e899182029731d4e8ba0a5bc56ac6a9e73ede62ba40f44a090b8c73384846040516102859392919061074f565b60405180910390a16001905092915050565b600081600160008673ffffffffffffffffffffffffffffffffffffffff1673ffffffffffffffffffffffffffffffffffffffff16815260200190815260200160002060003373ffffffffffffffffffffffffffffffffffffffff1673ffffffffffffffffffffffffffffffffffffffff16815260200190815260200160002054101561032257600080fd5b81600160008673ffffffffffffffffffffffffffffffffffffffff1673ffffffffffffffffffffffffffffffffffffffff16815260200190815260200160002060003373ffffffffffffffffffffffffffffffffffffffff1673ffffffffffffffffffffffffffffffffffffffff16815260200190815260200160002050506103b984848460006104a6909392919063ffffffff16565b7fddf252ad1be2c89b69c2b068fc378daa952ba7f163c4a11628f55a4df523b3ef8484846040516103ec9392919061074f565b60405180910390a1600190509392505050565b60008060008373ffffffffffffffffffffffffffffffffffffffff1673ffffffffffffffffffffffffffffffffffffffff168152602001908152602001600020549050919050565b600061046133848460006104a6909392919063ffffffff16565b7fddf252ad1be2c89b69c2b068fc378daa952ba7f163c4a11628f55a4df523b3ef3384846040516104949392919061074f565b60405180910390a16001905092915050565b808460008573ffffffffffffffffffffffffffffffffffffffff1673ffffffffffffffffffffffffffffffffffffffff1681526020019081526020016000205410156104f157600080fd5b8360008373ffffffffffffffffffffffffffffffffffffffff1673ffffffffffffffffffffffffffffffffffffffff16815260200190815260200160002054818560008573ffffffffffffffffffffffffffffffffffffffff1673ffffffffffffffffffffffffffffffffffffffff1681526020019081526020016000205461057a91906107ed565b101561058557600080fd5b808460008573ffffffffffffffffffffffffffffffffffffffff1673ffffffffffffffffffffffffffffffffffffffff1681526020019081526020016000205050808460008473ffffffffffffffffffffffffffffffffffffffff1673ffffffffffffffffffffffffffffffffffffffff168152602001908152602001600020600082825461061491906107ed565b9250508190555050505050565b600081359050610630816108bd565b92915050565b600081359050610645816108d4565b92915050565b60006020828403121561065d57600080fd5b600061066b84828501610621565b91505092915050565b60008060006060848603121561068957600080fd5b600061069786828701610621565b93505060206106a886828701610621565b92505060406106b986828701610636565b9150509250925092565b600080604083850312156106d657600080fd5b60006106e485828601610621565b92505060206106f585828601610636565b9150509250929050565b61070881610843565b82525050565b61071781610855565b82525050565b600061072a6000836107dc565b9150610735826108ba565b600082019050919050565b61074981610881565b82525050565b600060608201905061076460008301866106ff565b61077160208301856106ff565b61077e6040830184610740565b949350505050565b600060208201905061079b600083018461070e565b92915050565b600060208201905081810360008301526107ba8161071d565b9050919050565b60006020820190506107d66000830184610740565b92915050565b600082825260208201905092915050565b60006107f882610881565b915061080383610881565b9250827fffffffffffffffffffffffffffffffffffffffffffffffffffffffffffffffff038211156108385761083761088b565b5b828201905092915050565b600061084e82610861565b9050919050565b60008115159050919050565b600073ffffffffffffffffffffffffffffffffffffffff82169050919050565b6000819050919050565b7f4e487b7100000000000000000000000000000000000000000000000000000000600052601160045260246000fd5b50565b6108c681610843565b81146108d157600080fd5b50565b6108dd81610881565b81146108e857600080fd5b5056fea2646970667358221220444fb3aeac4c47ecb80ab2d49091fff17396e1e6aa502b307a80648e884cb69564736f6c63430008040033",
  "immutableReferences": {},
  "source": "//SPDX-License-Identifier: GPL-3.0\r\npragma solidity ^0.8.4;\r\n\r\nlibrary Balances {\r\n    function move(mapping( address => uint256) storage balances,\r\n    address from, address to, uint amount ) internal{\r\n        require(balances[from] >= amount);\r\n        require(balances[to] + amount >= balances[to]);\r\n        balances[from] == amount;\r\n        balances[to] += amount;\r\n    }\r\n}\r\n\r\ncontract Token {\r\n    mapping(address => uint256) balances;\r\n    using Balances for *;\r\n    mapping (address=>mapping (address=>uint256)) allowed;\r\n\r\n    event Transfer(address from, address to, uint amount);\r\n    event Aproval(address owner, address spender, uint amount);\r\n\r\n    function transfer(address to, uint amount)public returns(bool success) {\r\n        balances.move(msg.sender, to, amount);\r\n        emit Transfer(msg.sender, to, amount);\r\n\r\n        return true;\r\n    }\r\n\r\n    function transferFrom(address from , address to, uint256 amount)public  returns(bool success){\r\n        require(allowed[from][msg.sender] >= amount);\r\n        allowed[from][msg.sender] == amount;\r\n        balances.move(from, to, amount);\r\n        emit Transfer(from, to, amount);\r\n        return true;\r\n    }\r\n\r\n    function approve(address spender, uint tokens) public returns (bool success){\r\n        require(allowed[msg.sender][spender] == 0, \"\");\r\n        allowed[msg.sender][spender] = tokens;\r\n        emit Aproval(msg.sender, spender, tokens);\r\n        return true;\r\n    }\r\n    function balanceOf(address tokenOwner) public view returns (uint balance){\r\n        return balances[tokenOwner];\r\n    }\r\n}",
  "sourcePath": "C:/Users/kelche codes/Paymentchannel/contracts/Balance.sol",
  "compiler": {
    "name": "solc",
    "version": "0.8.4+commit.c7e474f2.Emscripten.clang"
  },
  "schemaVersion": "3.3.4",
  "updatedAt": "2021-04-26T12:45:55.750Z",
  "networkType": "ethereum",
  "devdoc": {
    "kind": "dev",
    "methods": {},
    "version": 1
  },
  "userdoc": {
    "kind": "user",
    "methods": {},
    "version": 1
  }
}